:100000000C94D1020C94EE020C94EE020C94672B2B
:100010000C94EE020C94EE020C94EE020C94EE02A0
:100020000C94EE020C94EE020C9407280C94EF282A
:100030000C9429180C94EE020C94EE020C94EE022F
:100040000C94EE020C94EE020C94EE020C94EE0270
:100050000C94EE020C94E3270C94EE020C94EE0246
:100060000C94EE020C94EE020C94EE020C94EE0250
:100070000C94EE020C94EE020C94EE020C94EE0240
:100080000C94EE020C94EE020C94EE020C94EE0230
:100090000C94EE020C94EE020C94EE020C94EE0220
:1000A0000C94EE020C94EE020C94EE020501098011
:1000B000A101850319012AB700150126B700950192
:1000C00075108100C0050C0901A101850419012AE0
:1000D000A002150126A002950175108100C005013E
:1000E0000906A1018506050719E029E71500250184
:1000F0009508750181020507190029EF15002501F2
:1001000095F075018102050819012905950575010C
:100110009102950175039101C00660FF0961A1017B
:100120000962150026FF00952075088102096315F4
:100130000026FF00952075089102C005010906A15F
:1001400001050719E029E7150025019508750181CA
:10015000029501750881010507190029FF15002680
:10016000FF0095067508810005081901290515008D
:100170002501950575019102950175039101C0094D
:10018000025B00030100A0FA090400000103010161
:100190000009211101000122440007058103080024
:1001A00001090401000203000000092111010001FE
:1001B0002222000705820320000107050303200017
:1001C00001090402000103000000092111010001DE
:1001D000226D0007058403200001120100020000C7
:1001E0000008534601000100010200010C03430016
:1001F0006F0072006E0065000000100366006F0063
:100200006F007300740061006E00000004030904B5
:10021000290014001A00080015001700E10004006E
:100220001600070009000A00E0001D001B00060080
:1002300019000500000000000000E30021522C001E
:100240002A00130012000C0018001C0034003300B8
:100250000F000E000D000B002B0038003700360099
:1002600010001100000000000000E60022522800EB
:100270001E001F002000210022002300E1004A0090
:100280004B004E004D004C00E00050005100520069
:100290004F002B00000000000000E30001002C00D4
:1002A0002A002D0027002600250024002E0027020A
:1002B0002602230222022102350030002F001E02F6
:1002C0001F022002000000000000E6002352280068
:1002D0002B001E021F02200221022202E1002F0237
:1002E0002F00300030023102E000350235003100CD
:1002F00033003302000000000000E30023522C0012
:100300002A00270226022502240223022E022D02A1
:10031000370236022E002D00290038003400340246
:100320001E023802000000000000E6000100280064
:100330003A003B003C003D003E003F00E1002078D9
:100340002378257827782178E00024782678287883
:1003500001000100000000000000E30001002C008B
:100360004500440043004200410040004C00490069
:10037000AB00AD00AE00AC002A004E004A00A80061
:10038000A900AA00000000000000E600010028000B
:1003900000AE00AF000101010101010101010202F3
:1003A0000202020202020203030303030303030423
:1003B00004040404040405050505050606060606EE
:1003C000070707070708080808090909090A0A0AA8
:1003D0000B0B0B0C0C0C0D0D0D0E0E0E0F0F0F104A
:1003E00010111111121213131414151516161717D4
:1003F000181819191A1A1B1B1C1D1D1E1E1F202040
:10040000212222232424252626272829292A2B2C89
:100410002D2D2E2F30313232333435363738393AAC
:100420003B3C3D3E3F404142434445464748494AA4
:100430004C4D4E4F50515354555658595A5B5D5E72
:100440005F616264656668696B6C6D6F707273750D
:1004500077787A7B7D7E8082838587888A8C8E8F71
:1004600091939596989A9C9EA0A2A3A5A7A9ABAD9F
:10047000AFB1B3B5B7BABCBEC0C2C4C6C9CBCDCF8D
:10048000D1D4D6D8DBDDDFE2E4E7E9EBEEF0F3F53B
:10049000F8FAFDFF00DA02815AD9F1DB20A4A62E7A
:1004A000AF00A0C0D30000A1C8D30000AED580A883
:1004B0001F408D1420002020202061626364656647
:1004C0006768696A6B6C6D6E6F7071727374757644
:1004D0007778797A31323334353637383930524596
:1004E00042545F2D3D5B5D5C233B27602C2E2F200B
:1004F00020200000000000000000000000000000BC
:1005000000000000000000000000000000000000EB
:100510000000000000007E0F00D4FFFFFFC70000B6
:10052000007800000000000000002A2B28000000D6
:100530000000000000000000000000000029000092
:1005400000002C1E3420212224342627252E362D6F
:100550003738271E1F202122232425263333362E09
:1005600037381F0405060708090A0B0C0D0E0F107B
:100570001112131415161718191A1B1C1D2F3130C0
:10058000232D350405060708090A0B0C0D0E0F1064
:100590001112131415161718191A1B1C1D2F3130A0
:1005A000354C11241FBECFEFDAE0DEBFCDBF12E025
:1005B000A0E0B1E0ECEBFBE502C005900D92AA3E95
:1005C000B107D9F727E0AAEEB2E001C01D92AB3324
:1005D000B207E1F70E945F220C94772D0C94000083
:1005E00020913A07821788F5362F3695369536953D
:1005F000320390011124820F932F911D92302CF51C
:10060000FC01E65CFA4F4081677021E030E0D901DF
:1006100001C0AA0F6A95EAF76A2F642B4617A9F062
:10062000608345E0969587954A95E1F702C0220FD1
:10063000331F8A95E2F78091380590913905822B16
:10064000932B809338059093390508958093F10496
:1006500008958093F204089521E001C0220F8A9545
:10066000EAF78091F204822B0E942903089521E089
:1006700001C0220F8A95EAF7822F80959091F204AB
:1006800089230E9429030895292F983090F58630F8
:1006900080F590E036E0239F800D911D112451E0FC
:1006A00081FD54E080FD550F82FD529523E0969523
:1006B00087952A95E1F7FC01EE0FFF1FE80FF91F60
:1006C000EA52FB4F20E030E070E04191DF01CB01C6
:1006D000022E02C0969587950A94E2F78695880BBC
:1006E0008427852384278E932F5F3F4F2330310546
:1006F00061F70895292F983070F5863060F590E005
:1007000036E0239F800D911D1124682F677023E030
:10071000969587952A95E1F7FC01EE0FFF1FE80FEC
:10072000F91FEA52FB4F40E050E080E0219130E0B9
:10073000062E02C0369527950A94E2F72170042E02
:1007400001C0220F0A94EAF7822B4F5F5F4F4330BC
:10075000510561F7089580E008959091F20421E039
:1007600030E0F90101C0EE0F8A95EAF7D90101C026
:10077000AA0F6A95EAF7EA2B01C0220F4A95EAF719
:10078000892F8E23E81305C0892F822B0E9429030D
:1007900008952095822F8923F9CFE091F804909154
:1007A000F704E91302C080E008959F0157E0E59F38
:1007B000F0011124E750FB4F5181561306C05081C0
:1007C000581303C05581541305C02F5F3F4FF901E3
:1007D000E770E7CF81E008958091F8042091F70455
:1007E000281301C0089501968770FACF9091F30401
:1007F000809589238093F304282F277069F4891743
:1008000059F09091F50492FF07C0869586958695DC
:100810000E9437031092F30408958091EE049091A2
:10082000F604892B9091EF049115C9F0892B9091D2
:100830006E01913021F49091F40497FD11C096E07F
:100840002EEE32E040E09150F90150812F5F3F4F92
:1008500051114F5F9111F7CF41111092EF0408959C
:100860009EE126EF32E0EECF8095982F8091EE0446
:1008700089238093EE040895803E9105D1F1C8F458
:100880008133910509F481C048F48932910509F456
:1008900071C08A32910509F47FC0089589339105AA
:1008A000E1F082389105C9F08533910509F45DC006
:1008B0000895843E9105D1F148F4823E910531F1CD
:1008C000833E910541F181EE90E00895863E9105C9
:1008D000C1F1873E9105F1F108952091F404237050
:1008E00009F064C02091F50423FF14C089E290E070
:1008F00008952091F40420FD45C03091F50430FFA7
:1009000009C024FD24C083EE90E008952091F404F2
:1009100022FDF7CF08952091F40422FD44C03091C8
:10092000F50430FD43C024FFF5CF11C02091F5043C
:1009300021FFF0CF8091F40484FD09C087EE90E0A0
:1009400008952091F40423FFE5CF24FFF7CF80E042
:1009500090E008952091F40423FD2BC03091F5041C
:1009600031FFE1CF84EE90E008952091F40425FF5B
:10097000D1CFBCCF2091F40425FD1EC02091F504F9
:1009800023FFC8CF89E390E008952091F40426FF67
:10099000C1CF8AE290E008952091F40426FFBACFF7
:1009A00081E390E0089582EE90E0089580EE90E07B
:1009B000089586EE90E0089585E390E00895909183
:1009C000F40492FF10C041E0282F2471243009F074
:1009D00040E031E0282F2871283009F030E043173B
:1009E00011F02CE0822793FF10C041E0282F2471E2
:1009F000243109F040E031E0282F2871283109F036
:100A000030E0431711F02CE082273091F50430FFDD
:100A100010C051E0282F2171213009F050E041E051
:100A2000282F2871283009F040E0541711F029E0F0
:100A3000822731FF10C041E0282F2171213109F0B8
:100A400040E031E0282F2871283109F030E04317C9
:100A500011F029E0822794FD877E08950F931F935C
:100A6000CF93DF930E943C04EC01D23508F050C0D4
:100A7000D03508F0C7C0C03ED10530F5CD3CD1051A
:100A800008F09DC0C83AD10578F4C53AD10508F000
:100A900093C0C130D105B1F1CE010497813A9105DF
:100AA00088F1C0E0D0E02EC0CE01885A91094B9762
:100AB000C0F7C85AD0E0CC0FDD1FC358DD4F0990F6
:100AC000D881C02DD4641EC0D034A0F4D03208F038
:100AD000ADC0C83ED105B0F0CE0191509F3108F7AE
:100AE0008D2F0E94DF04082F8C2F90E00E943C0481
:100AF000902B55C08C2F90E00E943C04DF70C82FD3
:100B0000D92BD06ACE01DF91CF911F910F9108951B
:100B1000C03882E5D807B8F5C03682E5D80708F0B6
:100B200056C0C03482E5D807C8F4C03282E5D80781
:100B300008F047C08C2F8695869520E2829FC001E1
:100B40001124C37021E030E002C0220F331FCA9588
:100B5000E2F7E901C82BD92BDD68D4CF8C2F86951D
:100B60008695877020E2829FC0011124C37021E026
:100B700030E002C0220F331FCA95E2F7E901C82B0B
:100B8000D92BDC68BFCFC03C82E5D80750F48C2F4E
:100B90008F71C03AD24580F5982F84EF906AEC01AE
:100BA000B1CFCE01805C9245809708F07ACFDC2FE0
:100BB000DF71C0EFD06AA6CFA497D064A3CFD06571
:100BC000A1CF8C2F8F71D82FC1EFD06A9BCF8C2FE4
:100BD00086958695877020E2829FC0011124C3709C
:100BE00021E030E002C0220F331FCA95E2F7E9018D
:100BF000C82BD92BDA6886CF0E94DF04C0E0D82F3B
:100C0000D06280CF8C2F8F710E94DF0493E0CC0FD5
:100C1000DD1F9A95E1F7DF70282F84FF04C090E173
:100C2000899F90011124C22FD0696CCF8D2F8F71B5
:100C30000E94DF04082F8C2F90E00E943C04902B30
:100C4000EC01DECF80E00895F894E82FE295EF7094
:100C5000F0E041A18F7021E001C0220F8A95EAF7F0
:100C6000922F9095942391A392A1822F892B82A3F6
:100C700078940895CF92DF92EF92FF921F93CF93D3
:100C8000DF93462F172FE82FF0E0EC56FC4F711141
:100C90000CC0E4918E2F7E2F6E2FDF91CF911F918C
:100CA000FF90EF90DF90CF900895F491EF2F86E0C2
:100CB000689FE00111242FEF30E0CE01B9010E94BE
:100CC0007E2CDB01CA01880F991F65E56A9FA00190
:100CD0006B9F500D1124841B482F440F480FC901EE
:100CE000811B9109F89F7001F99FF00C11248F2D41
:100CF000149FB0011124672F70E06901C61AD70A4A
:100D0000B601F69F6001F79FD00C1124A330B10506
:100D100049F1B901641B7109AB01149FB001159F22
:100D2000700D1124672F70E0261B370BF29FA00176
:100D3000F39F500D1124752FCC3FD34050F4A130B8
:100D4000B105A1F0129709F0A7CFEF2D852F7F2FC6
:100D5000A3CFA430B10569F0169709F49DCF7F2D7C
:100D60008D2D9ACF7D2DEF2D8F2F96CF7F2FED2DAF
:100D700093CFE52F7F2DF8CF2695E22F26FDE09526
:100D80009E2F9F7026FD9F5FE695E695E695E6709F
:100D9000F0E0E157FE4F3181399F302D912D112424
:100DA00032953F709295907F392B9081930F27FD5C
:100DB000919597FD9195990F292F382F239F020E1A
:100DC00020E0211D1124822F0895CF93DF93E42F7B
:100DD000F0E0EE0FFF1FE953FE4F408134EE439FDA
:100DE000040E40E0411D1124E72FF0E050E0445E86
:100DF0005F4FA22FB0E0EA01C21BD1099E01D7FFCD
:100E000003C09D01241B350B93E0220F331F9A95DD
:100E1000E1F7E21BF30B9F01F7FD20E0279F020E95
:100E200020E0211D1124722FDF91CF910895622FB0
:100E300008950F931F93022F50E0FA01EE0FFF1F4A
:100E4000E956FE4FE1A9E052E7FDE195440F551F39
:100E500049535E4FDA012C91201B310B2E0F620F8C
:100E60001F910F9108959091F703982B9093F7039A
:100E700008953091A504311104C08B3191050CF017
:100E80004B970E94420A0895FF920F931F93CF93AE
:100E9000DF93182F062FF42EC0E0D0E02F2D402F27
:100EA000612FCE010E9439072196C633D105B1F7D3
:100EB000CDB7DEB7E5E00C94BB2C9BE0899F802D7D
:100EC0001124982F955F973308F096E32091A5049D
:100ED000211104C08B3128F48BE108959C3108F076
:100EE0009BE10895EF92FF920F931F93CF93DF93AF
:100EF0007C01809105010E945D07192F30918704C4
:100F00003695369521E0320F08F43FEF6091F303F8
:100F10007091F40340E050E0639F060E411D739F03
:100F2000400D511D1124470F511D042FC82FD0E033
:100F3000C11768F08091A504811521F181E01B3172
:100F400008F080E0CDB7DEB7E6E00C94BA2CFE01E5
:100F5000ED5CFD4F808190910601892389F06091BD
:100F600084047091850480918604202F4C2FF70112
:100F700009950E943A06472F282FCE010E94390773
:100F80002196D6CF81E01633DBCFA7E0B0E0EBECC3
:100F9000F7E00C94922C582E80910401851123C007
:100FA0009091830493702091030130E081E09217C7
:100FB000130609F480E080930701809188049091E2
:100FC0000601981739F08093060140E060E080E068
:100FD0000E944407852D873088F4E52DF0E0E7581E
:100FE000F24D0C94F02C81E0E6CF80910701811541
:100FF00029F040E060E080E00E94440780E03CC0CF
:10100000809105010E945D078983192F60918404F6
:1010100070918504809186040E943A06062FF72E6F
:10102000E82E898190E08E839F838E81181709F0C6
:1010300040F48091A5048115C1F081E01B31E0F0FE
:10104000DDCFEE81FF81ED5CFD4F80819091060147
:10105000892339F02E2D4F2D602F8E819F810E9484
:1010600039078E819F810196DECF81E01633E7CF6D
:101070008CEB96E00E947207909105019F5F909320
:10108000050181110CC082E080930201809107016B
:10109000811105C0511003C083E08093020127969F
:1010A000E2E10C94AE2C85EE96E0E4CF87E197E088
:1010B000E1CF89E197E0DECF80910701811529F02A
:1010C00040E060E080E00E944407809105010E94BA
:1010D0005D079C838091F3039091F403A091F50345
:1010E000B091F6034091EF035091F0036091F1034A
:1010F0007091F203481759076A077B0708F0C8C0C8
:101100006091840470918504809186040E943A065F
:10111000462E7D83382E07ED13E087E9E82E81E027
:10112000F82E87EC91E08E839F83570186E0E80ECE
:10113000F11C4501370168011B82F60181916F01A5
:10114000811509F4ADC0232C8D818A834982F40175
:1011500081914F0190E0FC01ED5CFD4F20813091C9
:101160000601232329F0222D4A8169810E94390733
:10117000F30182913F0190E0FC01ED5CFD4F208185
:1011800030910601232329F0222D4A8169810E9492
:101190003907F601808182938B8191E09B838130B6
:1011A00061F6F8018281932CCD80D42C811103C08B
:1011B000912CC12CD12CF501828190E0FC01ED5CD9
:1011C000FD4F208130910601232329F0292D4C2D3C
:1011D0006D2D0E943907F501838190E0FC01ED5CE3
:1011E000FD4F208130910601232329F0292D4C2D1C
:1011F0006D2D0E943907209100013091010145E0D9
:1012000058E0249FC001259F900D349F900D11241C
:10121000875E994C8093000190930101890F837040
:1012200091E0811190E0F80192830D5F1F4F8E8154
:101230009F818E159F0509F078CF30E120918704BA
:10124000230F08F42FEF822F90E060E070E0839F7F
:10125000080E611D939F600D711D1124690F711D92
:1012600088EB9BE00E947E2C8091F3039091F40325
:10127000A091F503B091F603860F971FA11DB11D34
:101280008093EF039093F003A093F103B093F203E4
:101290008091A504811541F081E09C819B31CFCEE6
:1012A000212C1A82198253CF81E09C819633C7CEBC
:1012B000CF93C82F811591F080913B0481110EC00E
:1012C0000E94C5071092040180918304837080936B
:1012D00003010E94DF0C83E080930201C0933B0472
:1012E000CF9108959091830421E0922790938304F5
:1012F000109202010E943307089580918304837045
:1013000011F410920201809183048C7F816080939C
:101310008304089580918304837011F01092020178
:10132000809183048C7F809383040895909183043B
:10133000937099F0811591F0873090F48F73880F36
:10134000880F982F209183042370922B909383040D
:1013500010920201862F0E943307089581E0EFCF9B
:1013600086E0EDCF80918304869586958F5F8730E8
:1013700008F081E061E00E9496090895809183045D
:1013800086958695815009F486E061E00E94960971
:10139000089590918304937061F080938404609326
:1013A00085044F3608F04EE640938604822F0E9453
:1013B00033070895E3E8F4E0818190E021E0438180
:1013C000628108960E94C9090895E3E8F4E08181EA
:1013D00021E0438162818850990B0E94C9090895D8
:1013E000E3E8F4E0628120E1620F08F46FEF8181AD
:1013F00021E0438190E00E94C9090895E3E8F4E008
:10140000628120E1621B08F460E0818121E0438178
:1014100090E00E94C9090895E3E8F4E0438120E1E7
:10142000420F08F44FEF818121E0628190E00E9439
:10143000C9090895E3E8F4E0438120E1421B08F480
:1014400040E0818121E0628190E00E94C909089515
:101450002091870430E1230F08F42FEF20938704B5
:1014600081E00E94330708952091870430E1231B17
:1014700008F420E02093870481E00E943307089558
:10148000539A0895FC01EE0FFF1FE80FF91FEF5C60
:10149000FC4F6183408322830895FC01AC014C5FC3
:1014A0005F4F8FEF61E39191892728E030E0982F1B
:1014B000990F87FF09C0892F862721503040B9F73F
:1014C000E417F50781F70895892FF7CF8091A404D9
:1014D000811103C0809182040895E091CC04F091C1
:1014E000CD04309739F00190F081E02D309711F064
:1014F0000995089580E00895A3E0B0E0E2E8FAE0FD
:101500000C94A22C20912D0330912E03281739071B
:10151000B1F080932D0390932E03E091CC04F091D1
:10152000CD04309761F00084F185E02D309739F0DB
:1015300023E029838A839B83CE0101960995239614
:10154000E2E00C94BE2CA3E0B0E0E9EAFAE00C94EF
:10155000A22C20912B0330912C0328173907B1F0CE
:1015600080932B0390932C03E091CC04F091CD0455
:10157000309761F00084F185E02D309739F024E058
:1015800029838A839B83CE01019609952396E2E005
:101590000C94BE2C90916E01913099F0AEEEB2E0B9
:1015A000EFEF90E02C91821759F01196EF3F19F46C
:1015B000211101C0E92F9F5F9630A1F7EF3FC1F4E1
:1015C00008959091F40497FFE9CFE82FE695E6950A
:1015D000E695803FA8F7F0E0EC50FD4F877021E0E2
:1015E00001C0220F8A95EAF78281822B82830895B7
:1015F000FE2FFF0FFF0BE451FD4FF8CF90916E01CE
:10160000913021F49091F40497FD0CC0EEEEF2E0DD
:101610009191891302C0DF011E9292E0E43FF90725
:10162000B9F70895E82FE695E695E695803FC8F767
:10163000F0E0EC50FD4F9DEF81FD97EF80FF959519
:1016400082FD9295828189238283089580916D0124
:1016500008952FB7F8946091270370912803809123
:10166000290390912A032FBF08958091A404811526
:1016700041F00E94290B462F572FBC01CB01BA0124
:1016800008950E94290BDC01CB014091A6045091E2
:10169000A7046091A8047091A904480F591F6A1FFC
:1016A0007B1FECCF87E797E78093000890930108B2
:1016B00088E19AE00FB6F894A895809360000FBE79
:1016C00090936000FFCF0895FC0180911D039091DD
:1016D0001E038617970748F06115710529F480915C
:1016E000E8008E778093E800CB0140E0009741F45A
:1016F000411106C08091E80082FF30C080E008956B
:10170000209135042115B1F12530B1F12091E80087
:1017100023FD2EC02091E80022FDECCF2091E800AF
:1017200020FFE4CF4091F3002091F200342F009786
:1017300019F02830310558F041E02830310509F022
:1017400040E02091E8002E772093E800CFCF419130
:101750004093F10001972F5F3F4FE9CF809135040F
:10176000811541F0853041F08091E80083FFC2CFC0
:1017700081E0089582E0089583E00895982F909382
:10178000E900891771F07091EC002091ED00509103
:10179000F00021FD09C09F5F973089F78093E90031
:1017A0000895762F242F50E03091EB003E7F309348
:1017B000EB003091ED003D7F3093ED003091EB0078
:1017C00031603093EB007093EC002093ED00509368
:1017D000F0002091EE0027FDDECF089580911703E1
:1017E00087FF13C08091E80082FF06C08091E80067
:1017F0008B778093E8000895809135048111F2CFB2
:101800000895809135048115D9F38091E80080FF17
:10181000F8CF8091E8008E77ECCF2091E4003091F2
:10182000E50095E6A9012091EC00822F817020FF50
:1018300006C08091E80080FF06C080E008952091F6
:10184000E80022FD1AC080913504811589F08530A9
:1018500089F08091EB0085FD0FC02091E40030916C
:10186000E50042175307F9F29150E1F684E008953C
:1018700082E0089583E0089581E00895CF93DF9397
:10188000C8EDD0E088818F7E8883E7EDF0E080812D
:101890008160808384E082BF81E080931603888129
:1018A0008E7F8883E2EE10821092DA00A1EEB0E023
:1018B0001C9288818F77888388818068888388815B
:1018C0008F7D888319BC10923504109215031092F5
:1018D000F90310921403A0EE8C918B7F8C93888176
:1018E0008160888342E060E080E00E94BE0BA1EE50
:1018F000B0E08C918E7F8C93E2EEF0E0808181608D
:101900008083808188608083E0EE80818E7F808309
:10191000888180618883DF91CF910895E8EDF0E0C0
:1019200080818E7F80831092E2001092DA00109204
:10193000E100A0EEB0E08C9181608C9380818F7784
:10194000808319BCA7ED8C918E7F8C9380818F7ED4
:101950008083109216030895A0E0B0E0E2EBFCE073
:101960000C949A2C7C016B015A0180918B040AE043
:1019700010E08A3010F001E010E0C1E0D0E0B601E4
:10198000C701F5010995811115C021960C171D0796
:101990008CF0CC9F9001CD9F300D300D112480E054
:1019A00090E045E34A95F1F700000196821793070E
:1019B000C1F7E5CFCDB7DEB7EAE00C94B62C3BB16A
:1019C000377F2BB128604FB7F89481E393E0FC0197
:1019D0000196508168E02BB9000000C057FF3BB969
:1019E000550F000000C000C000C03BB900C06A95A0
:1019F00091F753E0833D950751F74FBF8FE594E092
:101A00000197F1F700C0000008950F931F93CF9343
:101A1000DF93EB018A0190913504943061F5809356
:101A2000E9008FEF9091E80095FD06C095ED9A953D
:101A3000F1F700008150B1F78091E80085FF1BC0ED
:101A40000E940D0C811112C08091E80085FD06C036
:101A50008091E8008E778093E800F2CF88818093B0
:101A6000F1000150104011F02196EECF8091E80076
:101A70008E778093E800DF91CF911F910F910895A9
:101A8000603231F440E250E0BC0182E00E94050D7A
:101A90000895CF93DF93EC0148E050E0BC0181E072
:101AA0000E94050D88E0FE01AFE1B3E001900D92C8
:101AB0008A95E1F7DF91CF91089540E250E0BC01B3
:101AC00084E00E94050D089543E050E0BC0184E0ED
:101AD0000E94050D08959091F50492FB222720F9AC
:101AE000281779F080FB92F99093F5046091F40443
:101AF0007091F50484E090E00E94712D82E00E94D4
:101B0000F60308951F93CF93DF93122F8430E0F4F0
:101B10006830D0F44630C0F4C42FD0E0CC0FDD1FC5
:101B20002CE0629FC00DD11D112490E6899FC00D4D
:101B3000D11D1124632FCE0189960E94532D612F50
:101B4000CE018A960E94532DDF91CF911F91089567
:101B5000AF92BF92CF92DF92FF920F931F93CF93DA
:101B6000DF93A12CB12C00E0650110E013C0FE0151
:101B7000259134914F2D612F802F0E94820D229646
:101B8000F3948F2D863099F786E0C80ED11C1F5F25
:101B9000183039F0E601CC0FDD1FC05FDD4FF12CAE
:101BA000E6CF0F5F80E3A80EB11C0430E9F6DF91A9
:101BB000CF911F910F91FF90DF90CF90BF90AF908A
:101BC0000895EAE3F5E0DF0180E092E01D920197DD
:101BD000E9F7E0930704F09308048FEF9FEF8093F9
:101BE0003805909339050895A7E1B0E0EAEFFDE0EC
:101BF0000C94922C0E94E10D26E0E1E7F1E0CE0189
:101C00000196DC0101900D922A95E1F726E0E7E7C5
:101C1000F1E0DE01179601900D922A95E1F77FEF32
:101C2000F72EEF2CDF2C7EEEC72E1C01C6018A9604
:101C3000898B9A8B9601A701B601C7010E94E02CFF
:101C40006D877E878F87988B6FEF762E672C572C4A
:101C500060EF462E00E010E08C2D865D8F8B9201A8
:101C6000A301B201C3010E94E02C2D853E854F8562
:101C70005889260F371F481F591FC901DA0141979C
:101C8000A105B1050CF451C0FE0137964101D40104
:101C90008C91982F990F990B4096D801A81BB90BDE
:101CA0008081982F990F990B8A96A988BA88A81ACB
:101CB000B90A9D010E94C92C9B01AC01A1E3B0E0CF
:101CC0000E94042D6B8B7C8B8D8B9E8B9501D50197
:101CD0000E94C92C9B01AC01A9E1B0E00E94042D37
:101CE0002B893C894D895E89260F371F481F591F54
:101CF000C901DA018A3C9440A105B105B4F03196DE
:101D00008FEF881A980ACE010D96E817F90709F0A7
:101D1000BECF0F5F1F4F8FEF481A580A680A780A24
:101D20000132110509F09BCF04C00032110509F002
:101D300060C08FEFC81AD80AE80AF80A83E1C8160B
:101D4000D104E104F10409F071CF11E3612F80E1C6
:101D50000E94F002612F81E10E94F002812F8F5FCB
:101D6000182F863799F75FEFB52EAB2C9B2C5CEFC5
:101D7000852E9401A501B401C5010E94E02C9B01B0
:101D8000AC01A1E3B0E00E94042D6D877E878F87B0
:101D9000988B89EFC82E8FEFD82EFD2CED2C960155
:101DA000A701B601C7010E94E02CDC01CB0144E091
:101DB000880F991FAA1FBB1F4A95D1F72D853E8515
:101DC0004F855889820F931FA41FB51F2601370125
:101DD0002FEF421A520A620A720A81319340A1051A
:101DE000B10594F4C6010596809740F06201730135
:101DF000D6CF6F89802F0E94F0028BCF682D675A53
:101E00008C2D8B5F0E94F0026201730188E0C8167E
:101E1000D104E104F10419F639EFC32E3FEFD32EBC
:101E2000FD2CED2C882D875A182F9601A701B6019D
:101E3000C7010E94E02CDC01CB0124E0880F991F30
:101E4000AA1FBB1F2A95D1F72D853E854F8558893E
:101E5000820F931FA41FB51F260137012FEF421ACF
:101E6000520A620A720A81319340A105B1055CF4FD
:101E7000C6014B968032910530F4612F0E94F0022A
:101E800062017301D2CF6201730188E0C816D104E8
:101E9000E104F10451F68FEF881A980AA80AB80AEB
:101EA00085E088169104A104B10409F062CF679619
:101EB000E2E10C94AE2C80916E01813069F5809145
:101EC000F40487FF29C00E940D048093F50240E2CC
:101ED00050E06CEA74E084EF92E00E940F2D892BB1
:101EE000D1F080E2E4EFF2E0ACEAB4E001900D92D0
:101EF0008A95E1F7E091CC04F091CD04309759F048
:101F00000480F581E02D309731F086E08093F40273
:101F100084EF92E0099508950E940D048093EC02ED
:101F200048E050E06EEC74E08CEE92E00E940F2DE1
:101F3000892B89F388E0ECEEF2E0AEECB4E001909E
:101F40000D928A95E1F7E091CC04F091CD043097A1
:101F500011F30280F381E02D3097E9F28CEE92E0EC
:101F6000D9CFCF93C82F8115D1F08450813A90F505
:101F700080916E01813021F48091F40487FD11C0BD
:101F8000EEEEF2E08081C817F9F0319682E0E43F8E
:101F9000F807C1F78C2F0E94CA0A0E945B0FCF91ED
:101FA0000895EC2FE695E695E695F0E0EC50FD4FB0
:101FB000828190E04C2F477021E001C0220F4A95AA
:101FC000EAF78223892B31F38C2F0E94FE0A0E94AC
:101FD0005B0FE0CF8C2F805E883060F4C77081E0AB
:101FE00001C0880FCA95EAF7C091EE04C82BC093D0
:101FF000EE04D3CF8C2F855A833030F48C2F84524B
:10200000990B0E947C0ACBCFC85ACB3140F6EC2FFB
:10201000F0E0EE0FFF1FED54FD4F808191810E9493
:10202000A30ABDCF811541F1982F9450913A28F41D
:102030000E94FE0A0E945B0F0895982F905E9830D0
:1020400058F4982F81E091FD84E090FD880F92FD77
:1020500082950E943404EECF982F955A933028F43D
:1020600080E090E00E947C0A0895885A8B3120F429
:1020700080E090E00E94A30A08951F93CF93DF931E
:10208000182FEB010E94B10F209739F4812F0E9485
:102090001210DF91CF911F9108958FE99FE0019772
:1020A000F1F700C000002197EFCF811539F0909132
:1020B000EE04982B9093EE040E945B0F0895811517
:1020C00021F00E9434040E945B0F08951092EE04E8
:1020D00080916E018130B9F48091F40487FF13C0C0
:1020E000E6EFF2E08EE111928A95E9F780E090E068
:1020F0000E947C0A80E090E00E94A30A1092F604FD
:102100000E945B0F0895EEEEF2E086E0ECCF0E94B5
:1021100066108FEF94E32CE0815090402040E1F76F
:1021200000C0000088E19AE00FB6F894A89580936B
:1021300060000FBE90936000FFCFAAE2B0E0E3EA38
:10214000F0E10C94A12C87E193E0FC010196209131
:10215000F100208323E08F319207B9F780911803B3
:10216000893009F45AC0C8F4823009F4B8C0833009
:1021700009F487C0813091F18091E80083FFECC0C1
:1021800080911703909118039A3008F0E5C0E92F69
:10219000F0E0E058F24D0C94F02C8A3009F48EC037
:1021A0008B3051F780911703813231F780911B03F7
:1021B00090911C03892B01F78091E800877F809321
:1021C000E8000E94EE0B81E090911903911101C08B
:1021D00080E080936E010E946610CECF809117033D
:1021E000813A51F68091E800877F8093E8008091E2
:1021F0001B0390911C03892B61F060E080E090E06C
:1022000070E00E94640B8091E8008B778093E80077
:10221000B3CF68E08FE193E0F3CF80911703813271
:1022200009F0AACF80911B0390911C038D7F892B0D
:1022300009F0A2CF8091E800877F8093E800809129
:10224000E80082FF19C02091F3008091F200922FE4
:10225000029731F48091F100813011F0863021F441
:102260008091F10080936D018091E8008B778093DD
:10227000E8000E94EE0B80CF809135048111DFCF02
:102280007BCF80911703813A09F076CF80911B03B1
:1022900090911C03892B09F06FCF8091E800877F14
:1022A0008093E8008091E80080FFFCCF80916E0170
:1022B0008093F1008091E8008E77D9CF8091170349
:1022C000813209F059CF8091E800877F8093E80040
:1022D0000E94EE0B80911A0380936C014DCF809188
:1022E0001703813A09F048CF8091E800877F8093F7
:1022F000E8008091E80080FFFCCF80916C01D8CF8E
:10230000803889F0823841F580911B038F708730C7
:1023100018F58093E9008091EB0085FB882780F910
:102320001092E90006C08091F903880F9091140380
:10233000892B9091E800977F9093E8008093F100BB
:102340001092F1008091E8008E7723C0811116C0B1
:1023500080911903813011F18091E80083FF0AC058
:102360008091E800877F8093E8008091EB00806295
:102370008093EB00AA96E3E00C94BD2C823061F7C9
:1023800080911903811581F01092E9008091E80095
:10239000877F8093E8000E94EE0BDECF933009F038
:1023A00080E08093F903F0CF80911B038F70282F7A
:1023B0002150263088F68093E9002091EB0020FF21
:1023C000E3CF933031F48091EB0080628093EB0097
:1023D000DBCF9091EB0090619093EB0021E001C086
:1023E000220F8A95EAF72093EA001092EA00809182
:1023F000EB008860EBCF8111AFCF809119038F770D
:10240000182F8091E3008078812B8093E3008091E6
:10241000E800877F8093E8000E94EE0B8091E8003F
:1024200080FFFCCF8091E30080688093E30083E02D
:10243000111101C082E0809335048ECF8058823024
:1024400008F08ACF8091190390911A038C3D23E004
:10245000920791F583E08A838AE289834FB7F894E3
:10246000DE01139620E03EE051E2E32FF0E05093CE
:102470005700849120FF03C082958F703F5F8F705B
:102480008A30C0F0895C8D931D922F5F243169F7EB
:102490004FBF8091E800877F8093E8006AE270E098
:1024A000CE0101960E94640B8091E8008B778093A7
:1024B000E80052CF805DE7CF292F30E0233031058F
:1024C00009F44EC078F52130310509F47DC08BE563
:1024D00090E0EFE7F1E02230310509F03DCF2091A7
:1024E000E800277F2093E80020911D0330911E0310
:1024F0008217930708F49C0140E02115310509F08B
:1025000068C0411166C08091E80082FDCDCF809106
:102510003504811549F2853039F28091E80083FF56
:10252000F2CFC2CF80911B0390911C032132310561
:1025300009F43BC02232310509F00ECF83309105FA
:1025400008F00ACFFC01EE0FFF1FED57FE4F019080
:10255000F081E02D80589E4FDC018C9190E011C0FD
:10256000282F30E0813089F022303105B1F0232B63
:1025700009F0F2CEECE0F2E0E4918E2F90E0ECE096
:10258000F2E0009709F4E8CEAACFEAEFF1E0E49197
:102590008E2F90E0EAEFF1E0F4CFECEEF1E0E49181
:1025A0008E2F90E0ECEEF1E0ECCF8330910508F057
:1025B000D3CE880F991FFC01E757FE4F0190F081A1
:1025C000E02D89E090E08BCF82E190E0EAEDF1E050
:1025D00086CF80913504811509F466CF853009F4E2
:1025E00063CF8091E80083FD5FCF8091E80082FD9A
:1025F0008ACF8091E80080FF80CF4091F3008091E6
:10260000F200942F2115310519F08830910550F012
:1026100041E0089709F040E08091E8008E778093D0
:10262000E8006BCF44914093F1003196215031097D
:102630000196E8CF803809F08FCE8091E800877F3F
:102640008093E800809115038093F1007BCE811187
:1026500083CE80911903182F823008F07DCE8091AF
:10266000E800877F8093E800109315030E94EE0B2B
:102670001115F9F084E08093350442E061EC81E0CB
:102680000E94BE0B42E261EC84E00E94BE0B42E27B
:1026900061EC82E00E94BE0B42E260EC83E00E94AB
:1026A000BE0B80913504843051F482E080936F0139
:1026B00053CE8091E30087FDDDCF81E0DCCF81E068
:1026C000F5CFCF92DF92FF920F931F93CF93DF93BB
:1026D0006901E801082F880F110B41155105B1F070
:1026E000F80133E0EE0FFF1F3A95E1F7E45EFE4F8D
:1026F00081819281805A9B4FE0812E2F30E04E17CE
:10270000510508F49A01A9010E941C2DC8010E94DC
:102710000A2CF82E8115E1F02097D1F0C80123E0B2
:10272000880F991F2A95E1F7FC01E45EFE4F238193
:10273000422F50E0C217D10508F4AE01845E9E4FCF
:10274000FC0164817581605A7B4FC6010E941C2D7B
:102750008F2DDF91CF911F910F91FF90DF90CF9040
:102760000895A4E0B0E0E7EBF3E10C949E2CE09038
:102770005004F090510400915204109153040E94AF
:10278000290BDC01CB018E199F09A00BB10B11E0C5
:1027900084369105A105B10518F10E94350BDC01C5
:1027A000CB010296A11DB11D89839A83AB83BC83A3
:1027B00000E010E0980144E050E0CE010196BC0139
:1027C00083E00E946113182F811551F00E94290B9C
:1027D0006093500470935104809352049093530477
:1027E000812F2496E6E00C94BA2CA4E0B0E0EBEF45
:1027F000F3E10C949E2CE0904004F0904104009191
:102800004204109143040E94290B2091EE04298375
:10281000DC01CB018E199F09A00BB10B8436910509
:10282000A105B10508F041C081E0909170049213B8
:1028300001C080E09091F6049A83811106C081E086
:1028400020917104291301C080E09091EF049B83D3
:10285000811106C081E020917204291301C080E03B
:102860009091F0049C83811104C0809173048917B6
:10287000B9F000E010E0980144E050E0CE0101968C
:10288000BC0187E00E946113811559F00E94290B59
:1028900060934004709341048093420490934304F6
:1028A00081E02496E6E00C94BA2C81E0C3CFA0E04E
:1028B000B0E0EDE5F4E10C94982CD82EEB01C42E99
:1028C00059014801E880F9800A811B810E94290B87
:1028D000DC01CB018E199F09A00BB10B8436910549
:1028E000A105B10510F4C11481F000E010E09801D9
:1028F000A401B5018D2D0E946113811539F00E944C
:10290000290B688379838A839B8381E0CDB7DEB707
:10291000ECE00C94B42C0F931F9341E090916D0464
:102920008091F204981301C040E001E010E022EF32
:1029300034E06CE474E084E00E945714811579F06F
:1029400041E090916E048091F104981301C040E041
:1029500021EF34E068E474E085E00E9457141F9191
:102960000F910895A1E0B0E0E8EBF4E10C94A02C05
:1029700080913604898320917D0490E041E02817FE
:10298000190609F440E08D01CE0101969C0167E330
:1029900074E089E00E9457142196E4E00C94BC2C6A
:1029A000CF92DF92FF920F931F93CF93DF93F82E76
:1029B0006B01EA01A801B901CE010E940F2D41E08F
:1029C000892B09F440E09E01B6018F2D0E94571417
:1029D000DF91CF911F910F91FF90DF90CF900895DD
:1029E0000F931F9304E010E025E634E0AC0164E5AA
:1029F00074E082E00E94D0141F910F910895A1E02D
:102A0000B0E0E5E0F5E10C94A02C0E94660A898311
:102A100001E010E02FE634E0CE010196AC0164E461
:102A200074E086E00E94D0142196E4E00C94BC2C63
:102A3000A9E0B0E0EEE1F5E10C94A02C88E0E3E839
:102A4000F4E09E012F5F3F4FD90101900D928A95CE
:102A5000E1F780913B04898709E010E024E734E046
:102A6000CE010196AC016CE374E088E00E94D014C2
:102A70002996E4E00C94BC2C8F929F92AF92BF9267
:102A8000CF92DF92FF920F931F93CF93DF9300D0EB
:102A900000D00F92CDB7DEB76B0101E010E0CE01A0
:102AA00005969C0140E050E0BA0180E00E9461136D
:102AB000182F811509F448C080905C0490905D0443
:102AC000A0905E04B0905F040E94290BFD80DC01A1
:102AD000CB0188199909AA09BB0984369105A1057A
:102AE000B10530F481E694E00E944D0A8F1561F142
:102AF00004E010E0CE0101969C0140E050E0BA01F4
:102B000081E00E946113182F81E694E00E944D0A33
:102B10008F1128C0111531F10E94290B60935C04BC
:102B200070935D0480935E0490935F0489819A8121
:102B3000AB81BC818093580490935904A0935A04AC
:102B4000B0935B0481E00FC08091610490916204B6
:102B5000A0916304B091640489839A83AB83BC839E
:102B60001111E4CF80E040915804509159046091D4
:102B70005A0470915B04F60140835183628373832E
:102B80000F900F900F900F900F90DF91CF911F91AA
:102B90000F91FF90DF90CF90BF90AF909F908F905C
:102BA00008950F931F93CF93DF93843008F5683017
:102BB000F8F44630E8F4C42FD0E0CC0FDD1F9CE0E1
:102BC000699FC00DD11D112490E6899FC00DD11DB4
:102BD0001124CE0189960E94352D082FCE018A96A8
:102BE0000E94352D902FDF91CF911F910F91089565
:102BF00080E090E0F8CF462F783040F4663030F433
:102C0000843020F4672F0E94D115089580E090E071
:102C10000895CF92DF92FF920F931F93CF93DF938C
:102C20006C010091F2048091F104082BC3E0D0E024
:102C300010E0C8010C2E02C0959587950A94E2F722
:102C400080FD0CC02197A8F7F12C8F2DDF91CF913B
:102C50001F910F91FF90DF90CF900895FC2EB60149
:102C60008C2F0E94FB150E942E05019759F3EDCF82
:102C70000F931F93CF93FC01258100811181C8011F
:102C8000211589F0611579F00E940916C82F682F67
:102C9000C8010E944403B8018C2F0E94FB15CF91FC
:102CA0001F910F9108950E947A03C82FF4CFCF93FC
:102CB000DF93EC010E940916BE010E94FB150E94E1
:102CC0002E05DF91CF910895FC0124812115A1F0FB
:102CD000808191810E945716282F92959F7096307F
:102CE00099F060F4925F9F70923030F4203FB1F021
:102CF00038F481E0283E38F080E008959A5FF3CF01
:102D000081E0243FC9F7089591E0213F09F090E068
:102D100081E0283E08F080E0892B089581E0089545
:102D2000673522E072078105910530F4CB018755A4
:102D30009E4F0E94352D089580E00895CF92DF9236
:102D4000EF92FF92CF93DF93EC01C880D980EA80A5
:102D5000FB80B601C7010E9490169FEFC91AD90ADD
:102D6000E90AF90AC882D982EA82FB82DF91CF910F
:102D7000FF90EF90DF90CF90089585E290E00E9461
:102D8000352D853269F486E290E00E94352D893038
:102D900039F487E290E00E94352D91E0823009F00D
:102DA00090E0892F8170089548E050E067E170E07D
:102DB00083E894E00E94432D1092F703089585E084
:102DC0008093830480917D0190917E01A0917F0189
:102DD0008093840490938504A09386048FE7809366
:102DE00087048FEF809388040E94D41608958F92F1
:102DF0009F92AF92BF92CF92DF92EF92FF920E948A
:102E0000350B6B017C016093D303D092D403809384
:102E1000D503F092D60380913B048115B9F080E090
:102E200090910201923009F441C090F591113BC09C
:102E300010920501C092F303D092F403E092F503DF
:102E4000F092F60381E08093020124C08090030495
:102E500090900404A0900504B09006048091A4040E
:102E6000811599F00E94290B681979098A099B0933
:102E7000613C77428940910590F680918304982FB8
:102E8000937069F286958695CBCF0E94350BECCF77
:102E90009330B9F0FF90EF90DF90CF90BF90AF905C
:102EA0009F908F9008950E94C507F4CF80930401EE
:102EB000809183048370809303010E94DF0C83E080
:102EC000C2CF8091F70381110E94D416C090F30302
:102ED000D090F403E090F503F090F6038091A40401
:102EE000811571F00E94290B6C197D098E099F09CB
:102EF000603171058105910568F210920201CACF17
:102F00000E94350BF1CFA0E1B0E0E9E8F7E10C94C5
:102F1000942CFE013196DF0180E11D928A95E9F73C
:102F200006E210E099EAA92E91E0B92E612C712CED
:102F30002501539441949E2E8F2E6201730181E1ED
:102F400048165104610471041CF080E1C82ED12C94
:102F5000A601B501892D982D0E94432DAC0CBD1CF6
:102F60000D2C000C00084C185D086008700801501A
:102F7000104019F76096E0E10C94B02C6FEF85E2F9
:102F800090E00E94532D6FEF86E290E00E94532D57
:102F90006FEF87E290E00E94532D60E088E290E0BE
:102FA0000E94532D0E94A80D0E94831765E285E2BE
:102FB00090E00E94532D69E086E290E00E94532D3C
:102FC00062E087E290E00E94532D0895AB0124E671
:102FD00030E0BC0188E70E94142A9C0181E0232B89
:102FE00009F080E00895809133048115F9F00E9482
:102FF000290BDC01CB01805A9541AF4FBF4F809325
:103000002D0490932E04A0932F04B093300480914C
:10301000360481110BC062E070E082E993E00E9407
:10302000E617811519F081E08093360408958091A8
:103030003304811569F080913604811549F062E00E
:1030400070E080E993E00E94E61781111092360447
:1030500008951F921FB61F9211248F939F93AF93D1
:10306000BF938091F803811113C080912703909141
:103070002803A0912903B0912A034196A11DB11DF7
:103080008093270390932803A0932903B0932A03E6
:10309000BF91AF919F918F911F901FBE1F90189568
:1030A0002FB7F8948091270390912803A0912903CA
:1030B000B0912A032FBF0895CF93DF93EC010E94B4
:1030C00050188C1B9D0BDF91CF910895ACE0B0E0C0
:1030D000ECE6F8E10C94992CFE013196DF0188E0D2
:1030E0001D928A95E9F783E7C82E82E0D82E7F01EA
:1030F000AE2E9F2C0DE712E0F60181916F018F3FFC
:1031000009F43DC0F894E82FE295EF70F0E021A1BA
:103110008F7041E001C0440F8A95EAF7922F942BFB
:1031200091A392A1842F8095892382A3789400C0D3
:10313000E7E7F2E031E0B12C21912F3F79F0A22FA7
:10314000A295AF70A05EB0E08C9190E02F7002C0AD
:10315000959587952A95E2F780FFAFC080E0B82A61
:10316000330F0E171F0741F7F60182918F3F11F0C1
:103170000E94240680EA8A95F1F7F701B0828FEF6A
:10318000E81AF80A87E792E08C159D0509F0B4CF9C
:1031900048E050E06A2D792D8CE994E00E940F2DD3
:1031A000009749F028E0EA2DF92DACE9B4E0019050
:1031B0000D922A95E1F700919B0410E00D561B4FEC
:1031C000892B09F47CC081E0809392040E945018FE
:1031D00080939004909391048091A404811509F444
:1031E000C9C07E0189E0E80EF11CF70184E011926C
:1031F0008A95E9F780918B048A3008F084C04CE30B
:1032000055E1B701C8010E94AC0C811509F4A0C0BA
:1032100040EF54E1B701C8010E94AC0C811509F4DC
:1032200097C041EB53E1B701C8010E94AC0C811576
:1032300009F48EC04BE854E1B701C8010E94AC0C00
:10324000811509F485C04FEF54E1B701C8010E9410
:10325000AC0C811509F47CC045EF53E1B701C801FE
:103260000E94AC0C811509F473C048E155E1B70127
:10327000C8010E94AC0C811509F46AC042EB54E10C
:10328000B701C8010E94AC0C811509F461C010920D
:103290008B0480918F0490E044E050E0B7018D569C
:1032A0009B4F0E940F2D21E020938E04892B09F063
:1032B00041C02C96EBE00C94B52C832F50CF80911D
:1032C0009204811509F488CFE0909004F090910465
:1032D0000E9450188E199F09059708F47DCF44E08D
:1032E00050E06CE974E0C8010E940F2D892B41F079
:1032F00084E0ECE9F4E0D80101900D928A95E1F7C1
:103300001092920469CFC0908C04D0908D040E94DA
:1033100050188C199D09843F914008F070CF80911E
:103320008E04811531F2F70184E011928A95E9F754
:1033300010928E04E0918F04F0E0ED56FB4F8985EA
:103340009A85AB85BC8580839183A283B383B1CFFB
:1033500080918B048F3F39F40E94501880938C0425
:1033600090938D04DCCF8F5F80938B048A3008F4B8
:1033700090CFF2CFE0908F04F12CC7018D569B4F78
:103380007C01F80180819181A281B38180936104E5
:1033900090936204A0936304B093640481E694E084
:1033A0000E944D0A809360048091650490916604A8
:1033B000A0916704B0916804F70180839183A28390
:1033C000B383C0906904D0906A04E0906B04F090DD
:1033D0006C0480917E0490917F04A0918004B09150
:1033E0008104C816D906EA06FB06B1F0C0927E0435
:1033F000D0927F04E0928004F09281040E94290B15
:10340000C61AD70AE80AF90AC092A604D092A704FD
:10341000E092A804F092A90480916D048093F204D4
:1034200080916E048093F10480916F0480938204F4
:103430002091710490917204809173043091700412
:103440003093EE042093F6042091F50422FF05C08A
:103450002091EF0492139093EF049091F00489135C
:103460008093F00488E0E4E7F4E0A3E8B4E001909E
:103470000D928A95E1F780917C040E945809809111
:103480007D04811519F00E94F31713CF0E941718BD
:1034900010CFFF920F931F93CF93DF93C62FD42F9C
:1034A000F22E8115B1F06093EC040E9450188093C5
:1034B0002F039093300381E0C1FD84E0C0FD880FAD
:1034C000C2FD82950E945510CDB7DEB7E5E00C94A1
:1034D000BB2C8091EC04681334C000912F03109131
:1034E00030030E945018801B910B883C910548F5D1
:1034F0001D2F105ECD17A1F0C77001E0802F01C015
:10350000880FCA95EAF70E945F10183048F48D2F93
:10351000877001C0000F8A95EAF7802F0E9455102E
:1035200060E070E08F2D0E943D1081E0D1FD84E0CD
:10353000D0FD880FD2FD8295183030F60E945F10C2
:10354000C3CF81E0C1FD84E0C0FD880FC2FD82953C
:10355000F5CFA4E0B0E0EFEAFAE10C94972C7C01FF
:10356000FC018481811509F4DEC061E0C7010E947D
:1035700038168C01F7018581811509F43BC19181D1
:103580009093EB0490819093EA0490E29093700101
:103590000093E8041093E90498013052303208F0A7
:1035A00046C09681903108F451C0E02FF0E0ED3331
:1035B000F10528F4EA54FB4FE491E093700198017F
:1035C000375720383105D8F5003108F09DC066E541
:1035D00072E080E090E00E949016811195C0A12CCD
:1035E000B12C450101115AC089829A82AB82BC82FA
:1035F0008E010F5F1F4FC8010E949E16B02EA12E94
:10360000813008F481C009F0AAC0C8010E949E164A
:10361000813009F057C0C8010E949E1660E570E035
:10362000893311F060E070E00E943D10E4CF980112
:103630003054303130F59681903108F0B6CFF80132
:10364000E851FC47E730F10508F4DAC01092EC04C9
:10365000980130572332310508F0DCC484E090E053
:103660000E943D2D8093F4049093F504F801E150FD
:10367000F047E232F10508F0F2C0E657F24D0C9443
:10368000F02C980131503F3108F48FCF9801205A27
:10369000324520323105D0F2F80189CF87E588160E
:1036A00082E09806A104B10479F1B401C5010E9439
:1036B00090169FEF891A990AA90AB90A8111EECFCB
:1036C000015090CF823031F4C8010E949E160E94B2
:1036D000B10F91CF833031F4C8010E949E160E9431
:1036E000121089CF843071F4C8010E949E16C12C3B
:1036F000D12C282F2053330B2A303105C0F0C114B0
:10370000D10419F5811177CF8091F304877059F0B6
:10371000F7018581811539F08091F50482FF03C09E
:1037200082E00E94F6032496EDE00C94B32C4AE06C
:103730004C9DC0014D9D900D1124280F391F69012A
:103740008B2D9A2D0E949E16D4CFEFE9FFE0319782
:10375000F1F700C0000091E0C91AD108D0CFE82FDE
:10376000F0E0EE5DFA4F9491792E282F269526955C
:10377000269530E0F901EE5EFA4FC4908770D12CA7
:10378000082E02C0D594C7940A94E2F7F901EE5FBF
:10379000FA4FA490B12C082E02C0B594A7940A94B5
:1037A000E2F72E503B4FF9018490912C02C0959482
:1037B00087948A95E2F7C0FE03C081EE0E94B10FA4
:1037C000A0FE03C086EE0E94B10F60E070E0872D7E
:1037D0000E943D10A0FE03C086EE0E941210C0FEA3
:1037E00003C081EE0E94121080FE05CF60E070E001
:1037F0008CE21ACFF801E851FC47E730F10508F5F3
:10380000E455F24D0C94F02C26E241EE61EE0E945C
:10381000491A7ACF27E245EE65EEF9CF26E241EE6E
:1038200060EEF5CF27E245EE64EEF1CF26E241EE01
:1038300062EEEDCF27E245EE66EEE9CF28E241E009
:10384000EBCF06319CE7190709F0D1C08091ED0458
:10385000811509F4BEC085E30E94FE0AEFC3809182
:10386000F40481608093F4046091F4047091F50491
:1038700084E090E00E94712D0E94661045CF8091F7
:10388000F50488608093F504EFCF8091F4048260A2
:10389000E9CF8091F4048460E5CF8091F4048860DE
:1038A000E1CF8091F5048160EDCF8091F5048260D5
:1038B000E9CF8091F4048061D5CF8091F4048062D7
:1038C000D1CF8091F4048064CDCF0E9466108091A6
:1038D000F4048068C7CF8091F4048C60C3CF8091DA
:1038E000F5048360CFCF8091F4048E7FBBCF8091AD
:1038F000F504877FC7CF8091F4048D7FB3CF80918B
:10390000F4048B7FAFCF8091F404877FABCF80919D
:10391000F5048E7FB7CF8091F5048D7FB3CF809172
:10392000F4048F7E9FCF8091F4048F7D9BCF809194
:10393000F4048F7B97CF0E9466108091F4048F77F8
:1039400091CF8091F404837F8DCF8091F5048C7F9B
:1039500099CF9091F404892F8B7F92FF8460877FA9
:1039600092FF88607FCF8091F504982F909590FB0F
:1039700080F990FB81F986CF9091F404892F8F7B99
:1039800096FF80646FCF0E9466109091F404892F97
:1039900097FB87F9805866CF61E08EE090E00E9447
:1039A000532D62CF60E0F9CF9091F404892F8F7E80
:1039B00094FF806157CF9091F404892F8E7F90FF00
:1039C000816050CF9091F504892F877F93FF8860A5
:1039D00059CF89E241CF9272F801E052F847EB30BB
:1039E000F10508F051C0ED54F24D0C94F02C90917B
:1039F000EE049272F801E054F847ED30F10508F05A
:103A000043C0E254F24D0C94F02C81E00E94720904
:103A10007BCE911511F10E94BE0976CE911511F160
:103A20000E94E50971CE911511F10E94FE096CCE3C
:103A3000911511F10E941A0A67CE911511F10E9499
:103A4000340A62CE0E947D0981E00E9433075CCE79
:103A50000E948A09F9CF9115F1F20E94B20954CE61
:103A60009115F1F20E94DA094FCE9115F1F20E9400
:103A7000F0094ACE9115F1F20E940C0A45CE91153B
:103A8000F1F20E94280A40CE07379CE71907F1F0AF
:103A900008379CE7190749F19801205E324520322A
:103AA000310548F581113EC00F7181E090E002C000
:103AB000880F991F0A95E2F78C01682F83E090E048
:103AC0000E94532D802F0E9426031ECE811549F09F
:103AD00081E00E942C0343E062E081E00E94AD039C
:103AE00013CE81E00E943703F6CF811511F082E0FA
:103AF000F0CF82E0F7CF8115A9F00A358CE71807DF
:103B000009F49AC008F072C001308CE7180709F474
:103B100091C003308CE7180709F486C001151C47D3
:103B200009F475C0F701858100811181811509F4BF
:103B300087C0C8010E940916D82E682FC8010E94AC
:103B40004403B8018D2D0E94FB150E942E05182FED
:103B5000A92EF701B580D680D2948FE0D82280912B
:103B6000F304877001F1CB2CB114F1F0892F807F21
:103B7000803461F0812F805E8830A8F0892F807EAC
:103B8000803221F4123078F0D11469F08091F5047C
:103B900082FF09C082E00E94F6038091F3048770DF
:103BA000CC24C3948111C12C8A2D82958F708830CA
:103BB00009F436C108F064C0843008F046C0823091
:103BC00008F46FC00A2D0F708A2D807F803211F0AB
:103BD0000295007F113008F49DC009F4E6C0B114CD
:103BE00009F4F1C0D11409F4B3C073C00B358CE7EC
:103BF000180721F10C351C4709F094CF8091F5048A
:103C0000002482FF0394802D0E946B0D8BCF0E94B5
:103C100066108FEF94E32CE0815090402040E1F754
:103C200000C000000E94520B6FEF7FEF80E090E039
:103C30000E94712D0E94871081E0E6CF80E0E4CFE2
:103C4000C8010E947A03D82E7CCF09F4CDC0C114DC
:103C500009F415C18091F30480FD11C1F7011582AB
:103C60008695869586950E942C03C7010E94A91A05
:103C70008091F3048695869586950E943703FFC050
:103C8000893009F448C18A5F8F70823000F7123F93
:103C900009F053C18A2D8F71B1104CC10E942C03C1
:103CA000ECC00A2D0F708A2D803110F00295007F34
:103CB000B114B9F0011569F0812F805E883010F0E1
:103CC000111109C08091EE04802B8093EE040E94B4
:103CD0005B0F812F2FC08091F604802B8093F60418
:103CE000F6CF812F0E941210011509F4B0CF812F59
:103CF000805E883010F0111104C0802F0E943404BF
:103D000006C000958091F60480238093F6040E94FB
:103D10005B0F9DCF8091F50482FD16C0B11469F050
:103D2000011539F08091EE04802B8093EE040E94FF
:103D30005B0F80E00E94B10F8ACF80E00E941210DA
:103D4000011509F484CFD9CFB114A9F0D11004C062
:103D5000802F0E9455107BCF8D2D813009F077CFB9
:103D60008091EF04902F9823091709F470CF802BCE
:103D70008093EF046CCFD1106ACF802F0E945F1028
:103D80009091EF04802F892329F0802F809589233B
:103D90008093EF048091F004902F982309F457CF7B
:103DA000009508230093F00452CF8D2DB11421F01B
:103DB000863008F04CCFCCCF853008F048CF802F2C
:103DC0000E945F1044CFD114D1F3193349F48FEF1F
:103DD00097EE23E0815090402040E1F700C00000C2
:103DE000812F0E94121033CF8A2D8695869583707D
:103DF000813060F009F02BCF812F9A2D9370B11094
:103E000002C080E090E00E94A30A21CF812F9A2D6A
:103E10009370B11002C080E090E00E947C0A17CF3E
:103E20008A2D8370E1F5B11028C0812F8295869587
:103E30008770880F880F412F4F70082E01C0440FE4
:103E40000A94EAF7212F207114FF06C02FE001C069
:103E5000220F8A95EAF720958A2D8695869583709C
:103E6000982F8230A1F08330B9F08091F104913025
:103E700059F0242B82230E9426030E94660A60E0E8
:103E8000C7010E9438164FCC842B822BF4CF242BF1
:103E90008091F1048227EFCF822F842BECCFB114D5
:103EA00059F1A0FEEACF812F829586958770880F01
:103EB000880F412F4F70082E01C0440F0A94EAF773
:103EC000212F207114FF06C02FE001C0220F8A9518
:103ED000EAF720958A2D869586958370982F8230F3
:103EE00091F08330A9F08091F204913049F0242BB5
:103EF00082230E942903C1CF823008F4BECFD3CFE2
:103F0000842B822BF6CF242B8091F2048227F1CFD1
:103F1000822F842BEECF8A2D8F70082FB11431F0B1
:103F20000E942C03812F0E945510A7CF812F0E9441
:103F30005F10802F0E943703A0CF70F4103FC9F0AC
:103F4000113F91F0B11409F451C0D11409F44BC0E0
:103F5000812F0E94B10F91CF133FF9F0143F91F7D9
:103F60009091F50492FD26C08A2D8F71B11411F342
:103F700095CE8D2DB11479F0853008F07ECF8A2D45
:103F80008F71282F81E001C0880F2A95EAF7909160
:103F9000F2048927AECF8630F0CF80E0B11409F467
:103FA000A8CF8A2D8F71982F81E001C0880F9A9534
:103FB000EAF79FCFB11461F08A2D8F7192FF6ECE18
:103FC000982F990F990F990F93609093F30466CEF1
:103FD00081E00E94F6038D2D823008F44ECF82E0FE
:103FE0000E94F6034ACF8A2D8F7158CED11479F0F2
:103FF000193349F48FEF97EE23E081509040204031
:10400000E1F700C00000812F0E94121036CF8A2DE8
:104010008F7190CF9091EE0406312CE7120709F0D2
:10402000DACC9A7A81E0911101C080E08093ED04AE
:1040300085E3911101C089E20E94CA0A0E945B0FC8
:1040400063CB80913705803170F4809136058115FE
:1040500051F0E091F8042091F7043091320540913D
:1040600031052E1301C00895BF0187E0E89FF001DC
:104070001124DF01A750BB4F14968C911497811522
:1040800061F111968C911197831327C08C91841341
:1040900024C015968C91159781111FC012968D9191
:1040A0009D91A0913305B09134058A1B9B0B883CF0
:1040B000910598F4809137058F7080618093370562
:1040C000E150FB4F80818F708061808381E395E0B8
:1040D0000E94A91A0E94EC0308956F5F7F4FFB01B5
:1040E000E770BFCFADE0B0E0E8E7F0E20C94972CCA
:1040F0008C0186E0F801DE01189601900D928A95F8
:10410000E1F7F801F580848191E3892E95E0992EFD
:1041100070903505711018C0811599F0F11409F4EB
:1041200015C1C8010E946416811509F40FC187E00A
:10413000F801A1E3B5E001900D928A95E1F70E94A4
:104140002120FF24F39456C0D080A280B380C09079
:1041500036052091330530913405A501421B530BE0
:10416000C11409F4C3C0483C510508F079C0811559
:1041700041F3809132059180E09037059E2D90317A
:1041800008F059C0981215C0809131058D1111C0E9
:10419000F1104BC08E2D8F7080618093370581E3C5
:1041A00095E00E94A91A80913705F8018683F12CC9
:1041B00021C0F1103AC040E0692D8D2D0E94CD0341
:1041C00040E0692D8D2D0E94CD03F82E8111EFCF97
:1041D000888599850E945716292F22952F70903433
:1041E00070F49F702230A0F09115B1F0F801968123
:1041F000903190F48F2D2D96EDE00C94B32C2A5F26
:104200002F70223068F0C8010E94A91AFC2CF2CF4E
:10421000911511F0811571F3805E883058F3F3CF5A
:10422000803F40F3815F8330F9CF80913705816013
:1042300080933705BCCF98123AC0809131058D111B
:1042400036C0F11034C0E682C8010E94A91A87E086
:10425000F801A1E3B5E001900D928A95E1F771CFE5
:10426000E09037059E2D903150F481E395E00E9457
:10427000A91AF40187E011928A95E9F798CF811580
:1042800009F45FCF909132058181981310C080911D
:1042900031058D110CC0F1100AC0E682C8010E94E0
:1042A000A91AF40187E011928A95E9F74ACFC8016B
:1042B0000E946416811509F449C0F11409F446C03E
:1042C0008E2D803208F433CF8091310590913205E4
:1042D00089839A83AB82BC827D821E82809137055E
:1042E0008F83CE0101960E94A91A21CF483C510527
:1042F00008F0BFCF811509F424CFF11439F1909162
:1043000032058181981318C0809131058D1114C038
:104310008091370580FD9BCF803108F498CF86834C
:10432000807F803F09F490CF8681982F907F905FA7
:104330008F70892B868388CFC8010E9464168111F3
:10434000F6CE80913705816080933705C8010E94C1
:10435000A91AF7CEABE1B0E0E0EBF1E20C94A02CAF
:104360004E8B5F8B688F798F8A8F192F9B8F91115E
:104370001092F6041D8A86E0FE017696DE011F96F5
:1043800001900D928A95E1F70A8D011561F00B8B72
:104390001C8B61E0CE010F960E94381661E0CE01C1
:1043A0000F960E9438160B8B1C8B87E0FE013F9600
:1043B000DE01189601900D928A95E1F7CE010896DC
:1043C0000E94722081112EC02091F7043091F804D0
:1043D00087E0AE01485F5F4FFA0147505109DA01AB
:1043E00001900D928A95E1F78C858115D9F0822F85
:1043F00090E08395877090E0AC0134171506E1F0EA
:1044000097E0929FD0011124A750BB4F9E012F5FD0
:104410003F4FF90101900D929A95E1F74093F7040F
:104420000E94EC038091F8049091F704891311C065
:104430006B96E4E00C94BC2C0E9466101092F7047A
:104440001092F804E1E3F5E087E011928A95E9F72C
:10445000E9CF27E0829FC001112487509B4F0E9423
:104460007220811529F38091F8049091F904019646
:1044700087708093F804D6CFA6E0B0E0E2E4F2E2E1
:104480000C94A02C0E9450188C018091AA04909149
:10449000AB048017910779F019821A820E94501894
:1044A000BC0149815A8180E090E00E94AA210093DA
:1044B000AA041093AB042696E4E00C94BC2CCDB770
:1044C000DEB7A0970FB6F894DEBF0FBECDBF85B79D
:1044D000806885BF85B7806885BF84B7877F84BFC4
:1044E0000FB6F894A8958091600088618093600071
:1044F000109260000FBE80E890E00FB6F8948093B1
:104500006100909361000FBE81E080936F0182E2B1
:1045100096E08093EA029093EB020E948E0C0E9438
:104520003E0C8091E20084608093E2007894809158
:104530003504811599F08091E9001091EC008F709D
:1045400010FB112717F9182B1092E9008091E80051
:1045500083FD0E949D101F701093E90082E084BDCE
:1045600093E095BD9AEF97BD80936E001092A604DC
:104570001092A7041092A8041092A9040E94BD16DC
:10458000811102C00E94BE1788EC90E02091E300E8
:1045900027FD0EC0EFE3FCE93197F1F700C0000002
:1045A0000197A1F70E948E0C1092350480E001C0A3
:1045B00081E08093A4048093A50480930801811175
:1045C0000E94202B809108018091080191E08927A9
:1045D000880F880F80939B0494E0981B90938F041E
:1045E00003E712E0F80181918F018F3F11F00E94E3
:1045F000240682E007371807A9F767E7E62E62E08E
:10460000F62E0DE712E0F70181917F018F3F11F047
:104610000E9424060E151F05B1F7E3E9F4E088E0D7
:1046200011928A95E9F7ECE9F4E088E011928A9515
:10463000E9F780E090E00E943D2D833E9E4F21F4FB
:104640000E94BD1681112DC063EE7EEF80E090E0E8
:104650000E94712D60E082E090E00E94532D81E085
:104660008093F10461E083E090E00E94532D60E0CC
:1046700074E184E090E00E94712D0E94DF160E9498
:10468000BE1760E070E0AB018FE090E00E94652D06
:1046900060E070E0AB0183E190E00E94652D0E9434
:1046A000D41682E090E00E94352D8093FA0384E0D6
:1046B00090E00E943D2D8093F4049093F5040E94B5
:1046C00066188FEF96E721E0815090402040E1F797
:1046D00000C000000E946618E091A50411E0E127E7
:1046E000EE0FEE0FF0E0ED56FB4F808181FF08C02A
:1046F0006FEF7FEF80E090E00E94712D0E94520BDF
:1047000083E090E00E94352D0E9426030E94400A1B
:104710001093F70348E050E067E170E083E894E02D
:104720000E94252D1092F70380918304843010F4A9
:104730000E94DF1683E080932B0480E280933A0787
:104740000E9483296BE070E08BEA94E00E94E617F8
:10475000811569F180912B0465E070E081FDACC0AA
:1047600086EA94E00E94E617811509F16DE070E099
:1047700084E994E00E94E6178115C9F00E94290B94
:10478000DC01CB01805A9541AF4FBF4F80932D0480
:1047900090932E04A0932F04B09330040E94E10D57
:1047A00081E0809333048093360410922C0480912E
:1047B000A404811102C00E94232B0E947D0960E0A5
:1047C00082E00E94960980E28093870480E00E9444
:1047D000330789E091E08093CC049093CD048091DD
:1047E0003504853089F480913504853009F467C03B
:1047F0000E9466100E94660A80E00E94580980E0CC
:104800000E9458090E94F3170E9466184BEFE42E8D
:1048100043E0F42E53E9C52E54E0D52EF601D7011E
:104820009D91808123E034E02A173B0709F48AC078
:1048300031969817A9F38090A40410E0772473941C
:10484000F60101916F01F70191907F01901621F11E
:104850009026AA24A394B12C892D8A21B1F0811429
:10486000A1F0B9821A830E9450188B839C837D82A9
:1048700091E0802F8A2109F490E09E8349815A813A
:104880006B817C818D810E94AA21B394AA0C8B2D0F
:10489000863011F7F70102931F5F183089F60E94E6
:1048A000350B609303047093040480930504909384
:1048B0000604DD24D3944BC081EA94E053CF809169
:1048C0003504843009F430C081E00E9458090E9408
:1048D00017180E94F71681E00E9458090E941718C5
:1048E0001092F80388E190E020E40FB6F894A895C0
:1048F000809360000FBE2093600083B7817F846047
:1049000083BF83B7816083BF7894889583B78E7F98
:1049100083BF0FB6F894A89580916000886180935A
:104920006000109260000FBE0E946618E3E9F4E098
:10493000808181112BC331968BE994E08E179F07FC
:10494000B9F751CF981377CF0E943C22D12C0E9407
:10495000F71680913304811509F4FCC000913104ED
:10496000109132040E945018801B910B84369105DF
:10497000D0F00E94501880933104909332048AE35F
:1049800095E080930704909308048091A504811515
:1049900009F416C180910A04811105C00E94F40D2A
:1049A00081E080930A048091380590913905892B24
:1049B00009F4B5C080912C048111B1C00E94F31795
:1049C0008091380590913905009709F4A8C080FBC3
:1049D000EE24E0F8F12C10E080FD0FC041E050E043
:1049E0001F5F7A01012E02C0EE0CFF1C0A94E2F751
:1049F0009C012E213F21232B99F380912B0480FFD2
:104A0000E9C0912F990F990F990F392F395F80E0E5
:104A100023E09093170180931A013093180120939B
:104A20001B0124E630E047E050E065E171E088E7F3
:104A30000E94B629892B09F072C080E2189FA0015C
:104A4000112480912B0480FFD7C0EBE0F4E080E2DA
:104A500011928A95E9F70DE612E029E6822E22E00E
:104A6000922E61E772E0D801ED918D01D4018D9114
:104A70004D013A01680E711CF0E0E55FFB4F20E04C
:104A800030E097E0A92EA21ACC24C394022E01C0D4
:104A9000CC0C0A94EAF7C301865C9A4F1C0190E0A3
:104AA000D1018D911D018C21AA2DA91BA770B0E009
:104AB000582E0A2E01C0550C0A94EAF7B195A1951B
:104AC000B109A77001C08695AA95EAF78529A0814A
:104AD0008A2B80839F5F983019F72F5F3F4F319665
:104AE0002830310571F66017710709F0BCCF04E674
:104AF00010E020E230E04BE054E060E488E70E9400
:104B0000742A892B61F4E094F09480913805909197
:104B10003905E822F922E0923805F09239058091B2
:104B200036048115B9F00E94290B00912D041091D3
:104B30002E0420912F0430913004DC01CB01801B26
:104B4000910BA20BB30B8F3F9F4FAF4FBF4710F49A
:104B50000E941718D1100E94F3170E94660A9091C4
:104B60003404891721F0809334040E94290B80912A
:104B70003504843009F033CE83E08093E9008091DE
:104B8000E80082FF2CCE8091E80090E085FF05C010
:104B90000E940D0C8115B9F191E08091E8008B77AE
:104BA0008093E800911509F41ACE8981E82FE1502D
:104BB000E33108F052C0F0E0E553F24D0C94F02CD4
:104BC000809109048111EFCE0E94F40D81E0809361
:104BD0000904E9CE20E2129FC0011124880F492F59
:104BE000441F550B5195242F912F9295990F907634
:104BF000392F315E842F0DCF465C5A4F04E610E00A
:104C000020E230E07ACF80E2E82EF12C8E010F5FB7
:104C10001F4F8091E80085FD0AC08091E8008B77E6
:104C20008093E8000E940D0C811599F3B5CF809117
:104C3000F100F801808381E0E81AF10809F4ACCFB3
:104C4000E6CF1A828CE08B831AC08A81833091F17F
:104C500038F4813031F1823051F08FEF89830FC009
:104C60008430D9F71B821C821D821E8208C088E214
:104C700090E00E94352D1B821C821D828E83E09164
:104C8000CC04F091CD04309709F4A9CD0284F385CA
:104C9000E02D309709F4A3CD60E2CE01019609958D
:104CA0009ECD0E94290B0E94F62C6B837C838D8302
:104CB0009E83E5CF8B8190E0FE013496883091058C
:104CC000F4F6DC01AD56BB4F2C9121930196F6CF43
:104CD0008A81823039F0853009F0BFCF80E00E94B0
:104CE0007209CDCF6B817C818D819E810E94F62CD3
:104CF00088E290E00E94532DC2CF4C816B818A8163
:104D00000E94D1159C013827232732272D833E830B
:104D1000B6CF2D813E813227232732274C816B81EC
:104D20008A810E94820DABCF0E94A80DA8CF9A81E4
:104D3000933009F092CF883009F439C0893009F4F2
:104D400063C08B81833061F158F4813091F08230FF
:104D500009F095CF8C8181111CC00E948A098FCFE8
:104D6000843009F08CCF8C8120E0409186046D81E5
:104D70000CC04C812EE6429F040E40E0411D1124E0
:104D80008091840420E06091850490E00E94C9092C
:104D900076CF0E947D0960E08C810E9496096FCFDA
:104DA0008C818093870480E00E94330768CF8B81D9
:104DB000833039F170F48130B1F0823009F05FCF87
:104DC00080918304982F9370D1F0869586958C837B
:104DD00056CF843009F053CF809184048C83809126
:104DE00085048D834CCF809186042FEF829FC00174
:104DF00011246EE670E00E947E2C6C8340CF80E030
:104E0000E6CF80918704E3CF0E94D41638CF80E1AB
:104E10008A8335CF82E08A8387E515CF8A809B809D
:104E2000982489249824A12CB12C8E010F5F1F4F48
:104E3000EC80E00EF12EF11CE016F10609F41FCF14
:104E400087E5881682E09806A104B10478F4C401CD
:104E500087559E4F0E94352DF80184830F5F1F4FA9
:104E60008FEF881A980AA80AB80AE6CF80E0F4CF34
:104E70007C80CA80DB80DC24CD24DC24E12CF12C76
:104E80008E010F5F1F4F4701540187149104A10445
:104E9000B10408F0F4CE87E5C81682E0D806E10434
:104EA000F10438F4F8016481C60187559E4F0E94D1
:104EB000532D8FEF881A980AA80AB80A8FEFC81ADC
:104EC000D80AE80AF80A0F5F1F4FDFCF0E94831746
:104ED000D6CE84E09DCF7C80CA80DB80DC24CD24CC
:104EE000DC24E12CF12C470154018E010B5F1F4F94
:104EF00087149104A104B10408F0C1CE80E8C8165B
:104F000081E0D806E104F10490F4C60189960E947C
:104F1000352DF80181938F018FEF881A980AA80A1E
:104F2000B80A8FEFC81AD80AE80AF80AE1CF80E079
:104F3000F0CF7C80CA80DB80DC24CD24DC24E12C13
:104F4000F12C8E010F5F1F4F47015401871491040C
:104F5000A104B10408F093CE80E8C81681E0D80619
:104F6000E104F10430F4F8016481C60189960E94DD
:104F7000532D8FEF881A980AA80AB80A8FEFC81A1B
:104F8000D80AE80AF80A0F5F1F4FE0CF8091F903B3
:104F9000811509F428CC80E189BD82E189BD09B47D
:104FA00000FEFDCF8091D8008F7D8093D800809146
:104FB000E00082608093E0008091E00081FDFCCF02
:104FC0000E94661010CC78941F921FB61F92112475
:104FD0008F939F93AF93BF93809127039091280362
:104FE000A0912903B0912A030196A11DB11D8093C0
:104FF000270390932803A0932903B0932A03BF911A
:10500000AF919F918F911F901FBE1F9018951F9277
:105010000F920FB60F9211242F933F934F935F93EC
:105020006F937F938F939F93AF93BF93EF93FF9370
:105030008091E10082FF09C08091E20082FF05C0FB
:105040008091E1008B7F8093E1008091DA0080FF06
:1050500024C08091D80080FF20C08091DA008E7F2C
:105060008093DA008091D90080FFA9C080E189BDDA
:1050700082E189BD09B400FEFDCF81E08093350453
:1050800080911603811109C00E948E0C0E943E0C73
:105090008091E20084608093E2008091E10080FFD3
:1050A0001AC08091E20080FF16C08091E2008E7FDE
:1050B0008093E2008091E20080618093E200809121
:1050C000D80080628093D80019BC85E080933504B5
:1050D00083E080936F018091E10084FF2FC0809175
:1050E000E20084FF2BC080E189BD82E189BD09B463
:1050F00000FEFDCF8091D8008F7D8093D8008091F5
:10510000E1008F7E8093E1008091E2008F7E8093AA
:10511000E2008091E20081608093E20080911503BB
:10512000811509F452C084E08093350480913504E0
:10513000843009F052C082E080936F018091E100D9
:1051400083FF2CC08091E20083FF28C08091E100A2
:10515000877F8093E10082E08093350410921503ED
:105160008091E1008E7F8093E1008091E2008E7F4C
:105170008093E2008091E20080618093E20042E04F
:1051800060E080E00E94BE0B8091F0008860809318
:10519000F00081E080936F0180936E01FF91EF91A9
:1051A000BF91AF919F918F917F916F915F914F913F
:1051B0003F912F910F900FBE0F901F90189519BC23
:1051C000109235041092160368CF8091E30087FF98
:1051D00002C083E0A9CF81E0A7CF81E0ADCF1F92CD
:1051E0000F920FB60F9211241F932F933F934F935B
:1051F0005F936F937F938F939F93AF93BF93CF935F
:10520000DF93EF93FF93E9EEF0E080811091EC00E3
:105210008F7010FB112717F9182B1082C0EFD0E008
:105220008881877F888378940E949D10E9EEF0E062
:1052300010828881886088831F701083FF91EF91AE
:10524000DF91CF91BF91AF919F918F917F916F919E
:105250005F914F913F912F911F910F900FBE0F9033
:105260001F901895EF92FF920F931F93CF93DF93A8
:10527000C82F8B011092BC0084EA8093BC000E946E
:1052800050187C018091BC0087FF26C08091B90036
:10529000887F883029F08091B900887F803181F53E
:1052A000C093BB0084E88093BC000E945018EC01BE
:1052B0008091BC0087FF1DC02091B900287F80E04D
:1052C00090E0283189F081E090E0203409F480E01A
:1052D00091958195910908C0C7010E945C18081733
:1052E000190780F68EEF9FEFCDB7DEB7E6E00C949E
:1052F000BA2CCE010E945C1808171907C8F6F2CF25
:105300008FEF9FEFF1CF1092B9008CE08093B8003F
:1053100008950F931F93CF93DF93EB018093BB000E
:1053200084E88093BC000E9450188C018091BC00DE
:1053300087FF10C02091B900287F81E090E02832DB
:1053400009F480E0919581959109DF91CF911F91AA
:105350000F910895CF3FDC0749F3C8010E945C1804
:10536000C817D90718F78EEF9FEFEFCF6F927F9294
:105370009F92AF92BF92CF92DF92EF92FF920F93E4
:105380001F93CF93DF93B82EA62E972E6A01890123
:105390000E9450183C010431110568F10F3F1007BD
:1053A00071F1C80164E170E00E947E2CF62EE72EB8
:1053B0006F2D7E2D8B2D0E943229EC01892B11F54A
:1053C000EA2CF92CCE0CDF1CEC14FD0411F0209714
:1053D00019F184E98093BC00CE01DF91CF911F9138
:1053E0000F91FF90EF90DF90CF90BF90AF909F9084
:1053F0007F906F900895FF24F394E12CD9CF85E03E
:10540000F82EFBCF0F3F100799F2C3010E945C18E2
:105410000817190768F6D4CFB801F70181917F0109
:105420000E948929EC01D0CF6F927F929F92AF9218
:10543000BF92CF92DF92EF92FF920F931F93CF9381
:10544000DF93B82EA62E972E6A0189010E9450186C
:105450003C010431110568F10F3F100771F1C801DB
:1054600064E170E00E947E2CF62EE72E6F2D7E2DDB
:105470008B2D0E943229EC01892B11F5EA2CF92C95
:10548000CE0CDF1CEC14FD0411F0209719F184E917
:105490008093BC00CE01DF91CF911F910F91FF90BF
:1054A000EF90DF90CF90BF90AF909F907F906F90E4
:1054B0000895FF24F394E12CD9CF85E0F82EFBCF9B
:1054C0000F3F100799F2C3010E945C1808171907D3
:1054D00068F6D4CFF7018491B8010E948929EC01C4
:1054E0008FEFE81AF80ACECFA0E0B0E0EAE7FAE2E0
:1054F0000C94962CB82EA62E942E852E6901E801C8
:105500000E9450183C010431110520F10F3F100793
:1055100029F1C80164E170E00E947E2CF62EE72E8E
:105520006F2D7E2D8B2D0E9432298C01892BC9F085
:10553000CF3FDC07A9F3C3010E945C18C817D90745
:1055400078F784E98093BC00C801CDB7DEB7EEE000
:105550000C94B22CFF24F394E12CE2CF85E0F82EDA
:10556000FBCFBE018A2D0E9489298C01E92CF82CE1
:10557000CE0CDF1CEC14FD0421F30115110509F715
:10558000BE01F70181917F010E9489298C01F2CF30
:105590008EE14A9B02C08150E1F74A9BFECF0895FD
:1055A0005A9880E28A95F1F75A9A0895FC018BE0A7
:1055B0008A95F1F728E080E090E031E040E14A95FB
:1055C000F1F7880F4A9B02C08160932742E04A9519
:1055D000F1F7000040E14A95F1F7215079F720E119
:1055E0002A95F1F729B132E03A95F1F7000030E160
:1055F0003A95F1F731E022FD93272081920F9083B5
:105600000895A1E0B0E0E7E0FBE20C949E2C198243
:105610008C017C01E60EF11C0E94C82ACE01019685
:105620000E94D62AF80181938F01EE15FF05A1F79C
:1056300081E09981911180E02196E6E00C94BA2CEA
:10564000529A5A9A089552985A9AEA9AE9E6F0E0DC
:1056500080818F7C808308956150770B91E001C039
:10566000990F6A95EAF7692F90E021E0611108C06F
:10567000911591F05A9A80E28A95F1F75A98089517
:10568000362F382339F05A9A922730E23A95F1F7BB
:105690006695ECCF5A98F9CF5A98EDCFFF920F93B9
:1056A0001F93CF93DF93EC018C01060F111D89919D
:1056B000F82E0E94D02A68E08F2D0E942C2BC01754
:1056C000D107A9F7CDB7DEB7E5E00C94BB2C1F924C
:1056D0000F920FB60F9211240F931F932F933F93A6
:1056E0004F935F936F937F938F939F93AF93BF93EA
:1056F000EF93FF93CF93DF930F92CDB7DEB719826D
:105700000E94C82ACE0101960E94D62A082F06952B
:1057100006950695282F22952570902F9570920F4B
:10572000292F237096959695920F982797708981C7
:10573000892B09F059C00B3008F056C080E18A95DA
:10574000F1F75A9A529A82E08A95F1F700C05A9876
:1057500088E0089F80011124D801A45EBE4F1696F0
:10576000ED91FD911897309791F0609171027091D1
:10577000720214962D913D91260F371F15978D912A
:105780009D91680F791F4C9113978C910995F801A1
:10579000E45EFE4F6381611551F0209171023091FA
:1057A000720284819581820F931F0E944E2B0E946A
:1057B000D02A80E18A95F1F75A9852985A9A80E156
:1057C0008A95F1F7F801E45EFE4F6081611551F0B2
:1057D000209171023091720281819281820F931F18
:1057E0000E94012B0E94C82A0F90DF91CF91FF9158
:1057F000EF91BF91AF919F918F917F916F915F9149
:105800004F913F912F911F910F910F900FBE0F90CD
:105810001F9018950F931F93CF93DF93EC010B9775
:105820000CF064C0F894529A5A9885E08A95F1F782
:1058300000009C2F969595708C2F8570980F892F5E
:10584000837096959695292F93E0CC0FDD1F9A953E
:10585000E1F7280F822F8C2B082F0E94D02A00C03E
:1058600068E0802F0E942C2B80E18A95F1F75298F6
:105870005A9A4A9B34C087E090E04A9932C0FE01B0
:10588000E45EFE4F6381611561F0209171023091F9
:10589000720284819581820F931F0E94012B8115D2
:1058A00011F10E94C82A80E28A95F1F75A98529A1B
:1058B00080E18A95F1F7C45EDE4F6881611551F091
:1058C000209171023091720289819A81820F931F17
:1058D0000E944E2B0E94D02A789481E008C000C01C
:1058E000C8CF019749F4529A5A9A789480E0DF9190
:1058F000CF911F910F91089500C0BFCFAA1BBB1B72
:1059000051E107C0AA1FBB1FA617B70710F0A61BBF
:10591000B70B881F991F5A95A9F780959095BC01E0
:10592000CD0108952F923F924F925F926F927F9296
:105930008F929F92AF92BF92CF92DF92EF92FF929F
:105940000F931F93CF93DF93CDB7DEB7CA1BDB0B4B
:105950000FB6F894DEBF0FBECDBF09942A883988F0
:1059600048885F846E847D848C849B84AA84B984F7
:10597000C884DF80EE80FD800C811B81AA81B98103
:10598000CE0FD11D0FB6F894DEBF0FBECDBFED0117
:1059900008950E94D12C332312F48A1B9B0B0C9484
:1059A000FF2CA29FB001B39FC001A39F700D811D6A
:1059B0001124911DB29F700D811D1124911D089518
:1059C000DB018F939F930E94042DBF91AF91A29F03
:1059D000800D911DA39F900DB29F900D11240895ED
:1059E000EE0FFF1F0590F491E02D0994692796278B
:1059F000692778278727782708950E94D12CB7FF39
:105A00000895821B930B08950E94D12CA59F900DA1
:105A1000B49F900DA49F800D911D11240895FB014A
:105A2000DC0104C08D910190801921F44150504057
:105A3000C8F7881B990B0895FB01DC0102C0019097
:105A40000D9241505040D8F70895DC01CB01FC0184
:105A5000F999FECF06C0F2BDE1BDF89A319600B4C7
:105A60000D9241505040B8F70895F999FECF92BD7C
:105A700081BDF89A992780B50895A8E1B0E042E089
:105A800050E00C94272DDC01A40FB51F415050406D
:105A900048F0CB01840F951F2E910E94542D415048
:105AA0005040D0F70895262FF999FECF92BD81BDC1
:105AB000F89A019700B4021639F01FBA20BD0FB64C
:105AC000F894FA9AF99A0FBE08950396272F0E9428
:105AD000542D0E94532D252F0E94542D242F0C94B9
